{
  "_format": "hh-sol-artifact-1",
  "contractName": "Transactions",
  "sourceName": "contracts/Transactions.sol",
  "abi": [
    {
      "anonymous": false,
      "inputs": [
        {
          "indexed": true,
          "internalType": "address",
          "name": "from",
          "type": "address"
        },
        {
          "indexed": false,
          "internalType": "address",
          "name": "to",
          "type": "address"
        },
        {
          "indexed": false,
          "internalType": "uint256",
          "name": "amount",
          "type": "uint256"
        },
        {
          "indexed": false,
          "internalType": "string",
          "name": "message",
          "type": "string"
        },
        {
          "indexed": false,
          "internalType": "uint256",
          "name": "timestamp",
          "type": "uint256"
        },
        {
          "indexed": false,
          "internalType": "string",
          "name": "keyword",
          "type": "string"
        }
      ],
      "name": "Transfer",
      "type": "event"
    },
    {
      "inputs": [
        {
          "internalType": "address",
          "name": "_receiver",
          "type": "address"
        },
        {
          "internalType": "uint256",
          "name": "_amount",
          "type": "uint256"
        },
        {
          "internalType": "string",
          "name": "_message",
          "type": "string"
        },
        {
          "internalType": "string",
          "name": "_keyword",
          "type": "string"
        }
      ],
      "name": "addToBlockchain",
      "outputs": [],
      "stateMutability": "nonpayable",
      "type": "function"
    },
    {
      "inputs": [],
      "name": "getAllTransactions",
      "outputs": [
        {
          "components": [
            {
              "internalType": "address",
              "name": "sender",
              "type": "address"
            },
            {
              "internalType": "address",
              "name": "receiver",
              "type": "address"
            },
            {
              "internalType": "uint256",
              "name": "amount",
              "type": "uint256"
            },
            {
              "internalType": "string",
              "name": "message",
              "type": "string"
            },
            {
              "internalType": "uint256",
              "name": "timestamp",
              "type": "uint256"
            },
            {
              "internalType": "string",
              "name": "keyword",
              "type": "string"
            }
          ],
          "internalType": "struct Transactions.TransferStruct[]",
          "name": "",
          "type": "tuple[]"
        }
      ],
      "stateMutability": "view",
      "type": "function"
    },
    {
      "inputs": [],
      "name": "transactionCount",
      "outputs": [
        {
          "internalType": "uint256",
          "name": "",
          "type": "uint256"
        }
      ],
      "stateMutability": "view",
      "type": "function"
    },
    {
      "inputs": [
        {
          "internalType": "uint256",
          "name": "",
          "type": "uint256"
        }
      ],
      "name": "transactions",
      "outputs": [
        {
          "internalType": "address",
          "name": "sender",
          "type": "address"
        },
        {
          "internalType": "address",
          "name": "receiver",
          "type": "address"
        },
        {
          "internalType": "uint256",
          "name": "amount",
          "type": "uint256"
        },
        {
          "internalType": "string",
          "name": "message",
          "type": "string"
        },
        {
          "internalType": "uint256",
          "name": "timestamp",
          "type": "uint256"
        },
        {
          "internalType": "string",
          "name": "keyword",
          "type": "string"
        }
      ],
      "stateMutability": "view",
      "type": "function"
    }
  ],
  "bytecode": "0x608060405234801561001057600080fd5b50610e45806100206000396000f3fe608060405234801561001057600080fd5b506004361061004c5760003560e01c806327506f53146100515780639ace38c21461006f578063b77bf600146100a4578063cc2d7ead146100c2575b600080fd5b6100596100de565b6040516100669190610b20565b60405180910390f35b61008960048036038101906100849190610860565b610321565b60405161009b96959493929190610a50565b60405180910390f35b6100ac6104bd565b6040516100b99190610b42565b60405180910390f35b6100dc60048036038101906100d791906107cd565b6104c3565b005b60606001805480602002602001604051908101604052809291908181526020016000905b8282101561031857838290600052602060002090600602016040518060c00160405290816000820160009054906101000a900473ffffffffffffffffffffffffffffffffffffffff1673ffffffffffffffffffffffffffffffffffffffff1673ffffffffffffffffffffffffffffffffffffffff1681526020016001820160009054906101000a900473ffffffffffffffffffffffffffffffffffffffff1673ffffffffffffffffffffffffffffffffffffffff1673ffffffffffffffffffffffffffffffffffffffff168152602001600282015481526020016003820180546101eb90610c97565b80601f016020809104026020016040519081016040528092919081815260200182805461021790610c97565b80156102645780601f1061023957610100808354040283529160200191610264565b820191906000526020600020905b81548152906001019060200180831161024757829003601f168201915b505050505081526020016004820154815260200160058201805461028790610c97565b80601f01602080910402602001604051908101604052809291908181526020018280546102b390610c97565b80156103005780601f106102d557610100808354040283529160200191610300565b820191906000526020600020905b8154815290600101906020018083116102e357829003601f168201915b50505050508152505081526020019060010190610102565b50505050905090565b6001818154811061033157600080fd5b90600052602060002090600602016000915090508060000160009054906101000a900473ffffffffffffffffffffffffffffffffffffffff16908060010160009054906101000a900473ffffffffffffffffffffffffffffffffffffffff16908060020154908060030180546103a690610c97565b80601f01602080910402602001604051908101604052809291908181526020018280546103d290610c97565b801561041f5780601f106103f45761010080835404028352916020019161041f565b820191906000526020600020905b81548152906001019060200180831161040257829003601f168201915b50505050509080600401549080600501805461043a90610c97565b80601f016020809104026020016040519081016040528092919081815260200182805461046690610c97565b80156104b35780601f10610488576101008083540402835291602001916104b3565b820191906000526020600020905b81548152906001019060200180831161049657829003601f168201915b5050505050905086565b60005481565b6000808154809291906104d590610cfa565b919050555060016040518060c001604052803373ffffffffffffffffffffffffffffffffffffffff1681526020018673ffffffffffffffffffffffffffffffffffffffff16815260200185815260200184815260200142815260200183815250908060018154018082558091505060019003906000526020600020906006020160009091909190915060008201518160000160006101000a81548173ffffffffffffffffffffffffffffffffffffffff021916908373ffffffffffffffffffffffffffffffffffffffff16021790555060208201518160010160006101000a81548173ffffffffffffffffffffffffffffffffffffffff021916908373ffffffffffffffffffffffffffffffffffffffff160217905550604082015181600201556060820151816003019080519060200190610612929190610698565b506080820151816004015560a0820151816005019080519060200190610639929190610698565b5050503373ffffffffffffffffffffffffffffffffffffffff167f416cfa4330a4565f45c2fd2dd4826a83a37443aba2ce6f79477c7355afac35fa858585428660405161068a959493929190610abf565b60405180910390a250505050565b8280546106a490610c97565b90600052602060002090601f0160209004810192826106c6576000855561070d565b82601f106106df57805160ff191683800117855561070d565b8280016001018555821561070d579182015b8281111561070c5782518255916020019190600101906106f1565b5b50905061071a919061071e565b5090565b5b8082111561073757600081600090555060010161071f565b5090565b600061074e61074984610b82565b610b5d565b90508281526020810184848401111561076657600080fd5b610771848285610c55565b509392505050565b60008135905061078881610de1565b92915050565b600082601f83011261079f57600080fd5b81356107af84826020860161073b565b91505092915050565b6000813590506107c781610df8565b92915050565b600080600080608085870312156107e357600080fd5b60006107f187828801610779565b9450506020610802878288016107b8565b935050604085013567ffffffffffffffff81111561081f57600080fd5b61082b8782880161078e565b925050606085013567ffffffffffffffff81111561084857600080fd5b6108548782880161078e565b91505092959194509250565b60006020828403121561087257600080fd5b6000610880848285016107b8565b91505092915050565b600061089583836109a2565b905092915050565b6108a681610c19565b82525050565b6108b581610c19565b82525050565b60006108c682610bc3565b6108d08185610be6565b9350836020820285016108e285610bb3565b8060005b8581101561091e57848403895281516108ff8582610889565b945061090a83610bd9565b925060208a019950506001810190506108e6565b50829750879550505050505092915050565b600061093b82610bce565b6109458185610bf7565b9350610955818560208601610c64565b61095e81610dd0565b840191505092915050565b600061097482610bce565b61097e8185610c08565b935061098e818560208601610c64565b61099781610dd0565b840191505092915050565b600060c0830160008301516109ba600086018261089d565b5060208301516109cd602086018261089d565b5060408301516109e06040860182610a32565b50606083015184820360608601526109f88282610930565b9150506080830151610a0d6080860182610a32565b5060a083015184820360a0860152610a258282610930565b9150508091505092915050565b610a3b81610c4b565b82525050565b610a4a81610c4b565b82525050565b600060c082019050610a6560008301896108ac565b610a7260208301886108ac565b610a7f6040830187610a41565b8181036060830152610a918186610969565b9050610aa06080830185610a41565b81810360a0830152610ab28184610969565b9050979650505050505050565b600060a082019050610ad460008301886108ac565b610ae16020830187610a41565b8181036040830152610af38186610969565b9050610b026060830185610a41565b8181036080830152610b148184610969565b90509695505050505050565b60006020820190508181036000830152610b3a81846108bb565b905092915050565b6000602082019050610b576000830184610a41565b92915050565b6000610b67610b78565b9050610b738282610cc9565b919050565b6000604051905090565b600067ffffffffffffffff821115610b9d57610b9c610da1565b5b610ba682610dd0565b9050602081019050919050565b6000819050602082019050919050565b600081519050919050565b600081519050919050565b6000602082019050919050565b600082825260208201905092915050565b600082825260208201905092915050565b600082825260208201905092915050565b6000610c2482610c2b565b9050919050565b600073ffffffffffffffffffffffffffffffffffffffff82169050919050565b6000819050919050565b82818337600083830152505050565b60005b83811015610c82578082015181840152602081019050610c67565b83811115610c91576000848401525b50505050565b60006002820490506001821680610caf57607f821691505b60208210811415610cc357610cc2610d72565b5b50919050565b610cd282610dd0565b810181811067ffffffffffffffff82111715610cf157610cf0610da1565b5b80604052505050565b6000610d0582610c4b565b91507fffffffffffffffffffffffffffffffffffffffffffffffffffffffffffffffff821415610d3857610d37610d43565b5b600182019050919050565b7f4e487b7100000000000000000000000000000000000000000000000000000000600052601160045260246000fd5b7f4e487b7100000000000000000000000000000000000000000000000000000000600052602260045260246000fd5b7f4e487b7100000000000000000000000000000000000000000000000000000000600052604160045260246000fd5b6000601f19601f8301169050919050565b610dea81610c19565b8114610df557600080fd5b50565b610e0181610c4b565b8114610e0c57600080fd5b5056fea264697066735822122056edacf6a2b676554af5fa204624034d9fdb537bc4f1ddc61ed72a0e6aa98fe764736f6c63430008040033",
  "linkReferences": {},
  "deployedLinkReferences": {}
}